{
  "contractName": "TaskList",
  "abi": [
    {
      "constant": true,
      "inputs": [],
      "name": "taskCount",
      "outputs": [
        {
          "name": "",
          "type": "uint256"
        }
      ],
      "payable": false,
      "stateMutability": "view",
      "type": "function"
    }
  ],
  "bytecode": "0x608060405260008055348015601357600080fd5b50609e806100226000396000f3fe608060405260043610603f576000357c0100000000000000000000000000000000000000000000000000000000900463ffffffff168063b6cb58a5146044575b600080fd5b348015604f57600080fd5b506056606c565b6040518082815260200191505060405180910390f35b6000548156fea165627a7a72305820b1eb3a92762f9c669fbfd8cd2fb17cc02a9e197a3ad0b84d8137b2820de12a540029",
  "source": "// SPDX-License-Identifier: Unlicense\npragma solidity ^0.5.0;\n\ncontract TaskList {\n    uint public taskCount = 0;\n}\n",
  "sourcePath": "/Users/igardiet/Desktop/tasketh/contracts/TaskList.sol",
  "compiler": {
    "name": "solc",
    "version": "0.5.0+commit.1d4f565a.Emscripten.clang"
  },
  "schemaVersion": "3.0.1",
  "updatedAt": "2023-09-13T13:52:57.011Z",
  "devdoc": {
    "methods": {}
  },
  "userdoc": {
    "methods": {}
  }
}